{
  "_format": "hh-sol-artifact-1",
  "contractName": "CRUD",
  "sourceName": "contracts/CRUD.sol",
  "abi": [
    {
      "inputs": [],
      "stateMutability": "nonpayable",
      "type": "constructor"
    },
    {
      "inputs": [
        {
          "internalType": "string",
          "name": "name",
          "type": "string"
        },
        {
          "internalType": "string",
          "name": "email",
          "type": "string"
        },
        {
          "internalType": "uint256",
          "name": "age",
          "type": "uint256"
        },
        {
          "internalType": "address",
          "name": "walletAddress",
          "type": "address"
        }
      ],
      "name": "create",
      "outputs": [
        {
          "internalType": "uint256",
          "name": "_totalEmployee",
          "type": "uint256"
        }
      ],
      "stateMutability": "nonpayable",
      "type": "function"
    },
    {
      "inputs": [
        {
          "internalType": "uint256",
          "name": "",
          "type": "uint256"
        }
      ],
      "name": "employees",
      "outputs": [
        {
          "internalType": "string",
          "name": "name",
          "type": "string"
        },
        {
          "internalType": "string",
          "name": "email",
          "type": "string"
        },
        {
          "internalType": "uint256",
          "name": "age",
          "type": "uint256"
        },
        {
          "internalType": "address",
          "name": "walletAddress",
          "type": "address"
        }
      ],
      "stateMutability": "view",
      "type": "function"
    },
    {
      "inputs": [],
      "name": "totalEmployees",
      "outputs": [
        {
          "internalType": "uint256",
          "name": "",
          "type": "uint256"
        }
      ],
      "stateMutability": "view",
      "type": "function"
    },
    {
      "inputs": [
        {
          "internalType": "string",
          "name": "name",
          "type": "string"
        },
        {
          "internalType": "string",
          "name": "email",
          "type": "string"
        }
      ],
      "name": "updateEmployee",
      "outputs": [
        {
          "internalType": "bool",
          "name": "",
          "type": "bool"
        }
      ],
      "stateMutability": "nonpayable",
      "type": "function"
    }
  ],
  "bytecode": "0x608060405234801561001057600080fd5b506000600181905550610bb2806100286000396000f3fe608060405234801561001057600080fd5b506004361061004c5760003560e01c806315f680e1146100515780634692ed67146100815780634739326b146100b157806352b9b973146100e4575b600080fd5b61006b6004803603810190610066919061069e565b610102565b6040516100789190610874565b60405180910390f35b61009b6004803603810190610096919061070a565b61027f565b6040516100a891906108e2565b60405180910390f35b6100cb60048036038101906100c6919061079d565b61039a565b6040516100db949392919061088f565b60405180910390f35b6100ec61050a565b6040516100f991906108e2565b60405180910390f35b600080600090505b600154811015610273576101f160008281548110610151577f4e487b7100000000000000000000000000000000000000000000000000000000600052603260045260246000fd5b9060005260206000209060040201600101805461016d90610a04565b80601f016020809104026020016040519081016040528092919081815260200182805461019990610a04565b80156101e65780601f106101bb576101008083540402835291602001916101e6565b820191906000526020600020905b8154815290600101906020018083116101c957829003601f168201915b505050505084610510565b15610260578360008281548110610231577f4e487b7100000000000000000000000000000000000000000000000000000000600052603260045260246000fd5b90600052602060002090600402016000019080519060200190610255929190610569565b506001915050610279565b808061026b90610a67565b91505061010a565b50600090505b92915050565b60008060405180608001604052808781526020018681526020018581526020018473ffffffffffffffffffffffffffffffffffffffff16815250905060008190806001815401808255809150506001900390600052602060002090600402016000909190919091506000820151816000019080519060200190610303929190610569565b506020820151816001019080519060200190610320929190610569565b506040820151816002015560608201518160030160006101000a81548173ffffffffffffffffffffffffffffffffffffffff021916908373ffffffffffffffffffffffffffffffffffffffff16021790555050506001600081548092919061038790610a67565b9190505550600154915050949350505050565b600081815481106103aa57600080fd5b90600052602060002090600402016000915090508060000180546103cd90610a04565b80601f01602080910402602001604051908101604052809291908181526020018280546103f990610a04565b80156104465780601f1061041b57610100808354040283529160200191610446565b820191906000526020600020905b81548152906001019060200180831161042957829003601f168201915b50505050509080600101805461045b90610a04565b80601f016020809104026020016040519081016040528092919081815260200182805461048790610a04565b80156104d45780601f106104a9576101008083540402835291602001916104d4565b820191906000526020600020905b8154815290600101906020018083116104b757829003601f168201915b5050505050908060020154908060030160009054906101000a900473ffffffffffffffffffffffffffffffffffffffff16905084565b60015481565b600081604051602001610523919061085d565b604051602081830303815290604052805190602001208360405160200161054a919061085d565b6040516020818303038152906040528051906020012014905092915050565b82805461057590610a04565b90600052602060002090601f01602090048101928261059757600085556105de565b82601f106105b057805160ff19168380011785556105de565b828001600101855582156105de579182015b828111156105dd5782518255916020019190600101906105c2565b5b5090506105eb91906105ef565b5090565b5b808211156106085760008160009055506001016105f0565b5090565b600061061f61061a84610922565b6108fd565b90508281526020810184848401111561063757600080fd5b6106428482856109c2565b509392505050565b60008135905061065981610b4e565b92915050565b600082601f83011261067057600080fd5b813561068084826020860161060c565b91505092915050565b60008135905061069881610b65565b92915050565b600080604083850312156106b157600080fd5b600083013567ffffffffffffffff8111156106cb57600080fd5b6106d78582860161065f565b925050602083013567ffffffffffffffff8111156106f457600080fd5b6107008582860161065f565b9150509250929050565b6000806000806080858703121561072057600080fd5b600085013567ffffffffffffffff81111561073a57600080fd5b6107468782880161065f565b945050602085013567ffffffffffffffff81111561076357600080fd5b61076f8782880161065f565b935050604061078087828801610689565b92505060606107918782880161064a565b91505092959194509250565b6000602082840312156107af57600080fd5b60006107bd84828501610689565b91505092915050565b6107cf8161097a565b82525050565b6107de8161098c565b82525050565b60006107ef82610953565b6107f9818561095e565b93506108098185602086016109d1565b61081281610b3d565b840191505092915050565b600061082882610953565b610832818561096f565b93506108428185602086016109d1565b80840191505092915050565b610857816109b8565b82525050565b6000610869828461081d565b915081905092915050565b600060208201905061088960008301846107d5565b92915050565b600060808201905081810360008301526108a981876107e4565b905081810360208301526108bd81866107e4565b90506108cc604083018561084e565b6108d960608301846107c6565b95945050505050565b60006020820190506108f7600083018461084e565b92915050565b6000610907610918565b90506109138282610a36565b919050565b6000604051905090565b600067ffffffffffffffff82111561093d5761093c610b0e565b5b61094682610b3d565b9050602081019050919050565b600081519050919050565b600082825260208201905092915050565b600081905092915050565b600061098582610998565b9050919050565b60008115159050919050565b600073ffffffffffffffffffffffffffffffffffffffff82169050919050565b6000819050919050565b82818337600083830152505050565b60005b838110156109ef5780820151818401526020810190506109d4565b838111156109fe576000848401525b50505050565b60006002820490506001821680610a1c57607f821691505b60208210811415610a3057610a2f610adf565b5b50919050565b610a3f82610b3d565b810181811067ffffffffffffffff82111715610a5e57610a5d610b0e565b5b80604052505050565b6000610a72826109b8565b91507fffffffffffffffffffffffffffffffffffffffffffffffffffffffffffffffff821415610aa557610aa4610ab0565b5b600182019050919050565b7f4e487b7100000000000000000000000000000000000000000000000000000000600052601160045260246000fd5b7f4e487b7100000000000000000000000000000000000000000000000000000000600052602260045260246000fd5b7f4e487b7100000000000000000000000000000000000000000000000000000000600052604160045260246000fd5b6000601f19601f8301169050919050565b610b578161097a565b8114610b6257600080fd5b50565b610b6e816109b8565b8114610b7957600080fd5b5056fea2646970667358221220034870728449cf57f63b400f0f858328a510d3d7d766e57dbae39105690a2f5464736f6c63430008040033",
  "linkReferences": {},
  "deployedLinkReferences": {}
}